{
  "contractName": "CosmeticsTraceability",
  "abi": [
    {
      "inputs": [],
      "stateMutability": "nonpayable",
      "type": "constructor"
    },
    {
      "anonymous": false,
      "inputs": [
        {
          "indexed": false,
          "internalType": "uint256",
          "name": "id",
          "type": "uint256"
        },
        {
          "indexed": false,
          "internalType": "address",
          "name": "previousOwner",
          "type": "address"
        },
        {
          "indexed": false,
          "internalType": "address",
          "name": "newOwner",
          "type": "address"
        }
      ],
      "name": "OwnershipTransferred",
      "type": "event"
    },
    {
      "anonymous": false,
      "inputs": [
        {
          "indexed": false,
          "internalType": "uint256",
          "name": "id",
          "type": "uint256"
        },
        {
          "indexed": false,
          "internalType": "string",
          "name": "name",
          "type": "string"
        }
      ],
      "name": "ProductCreated",
      "type": "event"
    },
    {
      "anonymous": false,
      "inputs": [
        {
          "indexed": false,
          "internalType": "address",
          "name": "user",
          "type": "address"
        },
        {
          "indexed": false,
          "internalType": "enum CosmeticsTraceability.Role",
          "name": "role",
          "type": "uint8"
        }
      ],
      "name": "RoleAssigned",
      "type": "event"
    },
    {
      "anonymous": false,
      "inputs": [
        {
          "indexed": false,
          "internalType": "uint256",
          "name": "id",
          "type": "uint256"
        },
        {
          "indexed": false,
          "internalType": "string",
          "name": "newStatus",
          "type": "string"
        }
      ],
      "name": "StatusUpdated",
      "type": "event"
    },
    {
      "inputs": [],
      "name": "admin",
      "outputs": [
        {
          "internalType": "address",
          "name": "",
          "type": "address"
        }
      ],
      "stateMutability": "view",
      "type": "function"
    },
    {
      "inputs": [],
      "name": "productCount",
      "outputs": [
        {
          "internalType": "uint256",
          "name": "",
          "type": "uint256"
        }
      ],
      "stateMutability": "view",
      "type": "function"
    },
    {
      "inputs": [
        {
          "internalType": "uint256",
          "name": "",
          "type": "uint256"
        }
      ],
      "name": "products",
      "outputs": [
        {
          "internalType": "string",
          "name": "name",
          "type": "string"
        },
        {
          "internalType": "string",
          "name": "batchID",
          "type": "string"
        },
        {
          "internalType": "uint256",
          "name": "manufactureDate",
          "type": "uint256"
        },
        {
          "internalType": "string",
          "name": "origin",
          "type": "string"
        },
        {
          "internalType": "bool",
          "name": "isAuthentic",
          "type": "bool"
        },
        {
          "internalType": "address",
          "name": "owner",
          "type": "address"
        }
      ],
      "stateMutability": "view",
      "type": "function"
    },
    {
      "inputs": [
        {
          "internalType": "address",
          "name": "",
          "type": "address"
        }
      ],
      "name": "roles",
      "outputs": [
        {
          "internalType": "enum CosmeticsTraceability.Role",
          "name": "",
          "type": "uint8"
        }
      ],
      "stateMutability": "view",
      "type": "function"
    },
    {
      "inputs": [
        {
          "internalType": "address",
          "name": "_user",
          "type": "address"
        },
        {
          "internalType": "enum CosmeticsTraceability.Role",
          "name": "_role",
          "type": "uint8"
        }
      ],
      "name": "addRole",
      "outputs": [],
      "stateMutability": "nonpayable",
      "type": "function"
    },
    {
      "inputs": [
        {
          "internalType": "string",
          "name": "_name",
          "type": "string"
        },
        {
          "internalType": "string",
          "name": "_batchID",
          "type": "string"
        },
        {
          "internalType": "uint256",
          "name": "_manufactureDate",
          "type": "uint256"
        },
        {
          "internalType": "string",
          "name": "_origin",
          "type": "string"
        }
      ],
      "name": "createProduct",
      "outputs": [],
      "stateMutability": "nonpayable",
      "type": "function"
    },
    {
      "inputs": [
        {
          "internalType": "uint256",
          "name": "_id",
          "type": "uint256"
        },
        {
          "internalType": "string",
          "name": "_newStatus",
          "type": "string"
        }
      ],
      "name": "updateStatus",
      "outputs": [],
      "stateMutability": "nonpayable",
      "type": "function"
    },
    {
      "inputs": [
        {
          "internalType": "uint256",
          "name": "_id",
          "type": "uint256"
        },
        {
          "internalType": "address",
          "name": "_newOwner",
          "type": "address"
        }
      ],
      "name": "transferOwnership",
      "outputs": [],
      "stateMutability": "nonpayable",
      "type": "function"
    },
    {
      "inputs": [
        {
          "internalType": "uint256",
          "name": "_id",
          "type": "uint256"
        }
      ],
      "name": "verifyProduct",
      "outputs": [
        {
          "internalType": "string",
          "name": "name",
          "type": "string"
        },
        {
          "internalType": "string",
          "name": "batchID",
          "type": "string"
        },
        {
          "internalType": "uint256",
          "name": "manufactureDate",
          "type": "uint256"
        },
        {
          "internalType": "string",
          "name": "origin",
          "type": "string"
        },
        {
          "internalType": "bool",
          "name": "isAuthentic",
          "type": "bool"
        },
        {
          "internalType": "string[]",
          "name": "history",
          "type": "string[]"
        },
        {
          "internalType": "address",
          "name": "owner",
          "type": "address"
        }
      ],
      "stateMutability": "view",
      "type": "function"
    }
  ],
  "bytecode": "0x6080604052600060025534801561001557600080fd5b5033600360006101000a81548173ffffffffffffffffffffffffffffffffffffffff021916908373ffffffffffffffffffffffffffffffffffffffff16021790555060018060003373ffffffffffffffffffffffffffffffffffffffff1673ffffffffffffffffffffffffffffffffffffffff16815260200190815260200160002060006101000a81548160ff021916908360038111156100df577f4e487b7100000000000000000000000000000000000000000000000000000000600052602160045260246000fd5b0217905550612997806100f36000396000f3fe608060405234801561001057600080fd5b50600436106100935760003560e01c80637acc0b20116100665780637acc0b20146101225780639937464214610157578063d1b34dd814610187578063e0f6ef87146101a3578063f851a440146101c157610093565b806312c891961461009857806329507f73146100b457806344deb6f3146100d0578063524e8462146100ec575b600080fd5b6100b260048036038101906100ad919061199b565b6101df565b005b6100ce60048036038101906100c99190611a6f565b610576565b005b6100ea60048036038101906100e5919061195f565b6109e8565b005b61010660048036038101906101019190611a46565b610bf6565b604051610119979695949392919061207d565b60405180910390f35b61013c60048036038101906101379190611a46565b610fbe565b60405161014e96959493929190612007565b60405180910390f35b610171600480360381019061016c9190611936565b6111bf565b60405161017e9190611fec565b60405180910390f35b6101a1600480360381019061019c9190611aab565b6111df565b005b6101ab611462565b6040516101b89190612208565b60405180910390f35b6101c9611468565b6040516101d69190611fa8565b60405180910390f35b60016003811115610219577f4e487b7100000000000000000000000000000000000000000000000000000000600052602160045260246000fd5b600160003373ffffffffffffffffffffffffffffffffffffffff1673ffffffffffffffffffffffffffffffffffffffff16815260200190815260200160002060009054906101000a900460ff16600381111561029e577f4e487b7100000000000000000000000000000000000000000000000000000000600052602160045260246000fd5b146102de576040517f08c379a00000000000000000000000000000000000000000000000000000000081526004016102d590612188565b60405180910390fd5b600260008154809291906102f1906127bd565b91905055506040518060e001604052808581526020018481526020018381526020018281526020016001151581526020013373ffffffffffffffffffffffffffffffffffffffff168152602001600067ffffffffffffffff81111561037f577f4e487b7100000000000000000000000000000000000000000000000000000000600052604160045260246000fd5b6040519080825280602002602001820160405280156103b257816020015b606081526020019060019003908161039d5790505b50815250600080600254815260200190815260200160002060008201518160000190805190602001906103e6929190611728565b506020820151816001019080519060200190610403929190611728565b5060408201518160020155606082015181600301908051906020019061042a929190611728565b5060808201518160040160006101000a81548160ff02191690831515021790555060a08201518160040160016101000a81548173ffffffffffffffffffffffffffffffffffffffff021916908373ffffffffffffffffffffffffffffffffffffffff16021790555060c08201518160050190805190602001906104ae9291906117ae565b50905050600080600254815260200190815260200160002060050180600181540180825580915050600190039060005260206000200160006040518060400160405280601781526020017f43726561746564206279204d616e75666163747572657200000000000000000081525090919091509080519060200190610534929190611728565b507f543247085674b00368d9cd41416be705a4c27143c024163a6f58bf12a41992f56002548560405161056892919061225a565b60405180910390a150505050565b8160008111801561058957506002548111155b6105c8576040517f08c379a00000000000000000000000000000000000000000000000000000000081526004016105bf90612108565b60405180910390fd5b823373ffffffffffffffffffffffffffffffffffffffff1660008083815260200190815260200160002060040160019054906101000a900473ffffffffffffffffffffffffffffffffffffffff1673ffffffffffffffffffffffffffffffffffffffff161461066c576040517f08c379a000000000000000000000000000000000000000000000000000000000815260040161066390612128565b60405180910390fd5b600073ffffffffffffffffffffffffffffffffffffffff168373ffffffffffffffffffffffffffffffffffffffff1614156106dc576040517f08c379a00000000000000000000000000000000000000000000000000000000081526004016106d3906121a8565b60405180910390fd5b60016003811115610716577f4e487b7100000000000000000000000000000000000000000000000000000000600052602160045260246000fd5b600160003373ffffffffffffffffffffffffffffffffffffffff1673ffffffffffffffffffffffffffffffffffffffff16815260200190815260200160002060009054906101000a900460ff16600381111561079b577f4e487b7100000000000000000000000000000000000000000000000000000000600052602160045260246000fd5b14806108635750600260038111156107dc577f4e487b7100000000000000000000000000000000000000000000000000000000600052602160045260246000fd5b600160003373ffffffffffffffffffffffffffffffffffffffff1673ffffffffffffffffffffffffffffffffffffffff16815260200190815260200160002060009054906101000a900460ff166003811115610861577f4e487b7100000000000000000000000000000000000000000000000000000000600052602160045260246000fd5b145b6108a2576040517f08c379a0000000000000000000000000000000000000000000000000000000008152600401610899906121c8565b60405180910390fd5b600080600086815260200190815260200160002060040160019054906101000a900473ffffffffffffffffffffffffffffffffffffffff1690508360008087815260200190815260200160002060040160016101000a81548173ffffffffffffffffffffffffffffffffffffffff021916908373ffffffffffffffffffffffffffffffffffffffff16021790555060008086815260200190815260200160002060050161094e8561148e565b60405160200161095e9190611f86565b6040516020818303038152906040529080600181540180825580915050600190039060005260206000200160009091909190915090805190602001906109a5929190611728565b507f16b85f49bf01212961345d3016c9a531894accf62eb7680f2045d79185cc0ec08582866040516109d993929190612223565b60405180910390a15050505050565b600360009054906101000a900473ffffffffffffffffffffffffffffffffffffffff1673ffffffffffffffffffffffffffffffffffffffff163373ffffffffffffffffffffffffffffffffffffffff1614610a78576040517f08c379a0000000000000000000000000000000000000000000000000000000008152600401610a6f90612148565b60405180910390fd5b60006003811115610ab2577f4e487b7100000000000000000000000000000000000000000000000000000000600052602160045260246000fd5b816003811115610aeb577f4e487b7100000000000000000000000000000000000000000000000000000000600052602160045260246000fd5b1415610b2c576040517f08c379a0000000000000000000000000000000000000000000000000000000008152600401610b2390612168565b60405180910390fd5b80600160008473ffffffffffffffffffffffffffffffffffffffff1673ffffffffffffffffffffffffffffffffffffffff16815260200190815260200160002060006101000a81548160ff02191690836003811115610bb4577f4e487b7100000000000000000000000000000000000000000000000000000000600052602160045260246000fd5b02179055507f4ac36fa53f167ceb85964be512e01de2a3b8bdb9862f917da079deeeff689b388282604051610bea929190611fc3565b60405180910390a15050565b6060806000606060006060600087600081118015610c1657506002548111155b610c55576040517f08c379a0000000000000000000000000000000000000000000000000000000008152600401610c4c90612108565b60405180910390fd5b60008060008b81526020019081526020016000206040518060e0016040529081600082018054610c849061278b565b80601f0160208091040260200160405190810160405280929190818152602001828054610cb09061278b565b8015610cfd5780601f10610cd257610100808354040283529160200191610cfd565b820191906000526020600020905b815481529060010190602001808311610ce057829003601f168201915b50505050508152602001600182018054610d169061278b565b80601f0160208091040260200160405190810160405280929190818152602001828054610d429061278b565b8015610d8f5780601f10610d6457610100808354040283529160200191610d8f565b820191906000526020600020905b815481529060010190602001808311610d7257829003601f168201915b5050505050815260200160028201548152602001600382018054610db29061278b565b80601f0160208091040260200160405190810160405280929190818152602001828054610dde9061278b565b8015610e2b5780601f10610e0057610100808354040283529160200191610e2b565b820191906000526020600020905b815481529060010190602001808311610e0e57829003601f168201915b505050505081526020016004820160009054906101000a900460ff161515151581526020016004820160019054906101000a900473ffffffffffffffffffffffffffffffffffffffff1673ffffffffffffffffffffffffffffffffffffffff1673ffffffffffffffffffffffffffffffffffffffff16815260200160058201805480602002602001604051908101604052809291908181526020016000905b82821015610f76578382906000526020600020018054610ee99061278b565b80601f0160208091040260200160405190810160405280929190818152602001828054610f159061278b565b8015610f625780601f10610f3757610100808354040283529160200191610f62565b820191906000526020600020905b815481529060010190602001808311610f4557829003601f168201915b505050505081526020019060010190610eca565b50505050815250509050806000015181602001518260400151836060015184608001518560c001518660a0015198509850985098509850985098505050919395979092949650565b6000602052806000526040600020600091509050806000018054610fe19061278b565b80601f016020809104026020016040519081016040528092919081815260200182805461100d9061278b565b801561105a5780601f1061102f5761010080835404028352916020019161105a565b820191906000526020600020905b81548152906001019060200180831161103d57829003601f168201915b50505050509080600101805461106f9061278b565b80601f016020809104026020016040519081016040528092919081815260200182805461109b9061278b565b80156110e85780601f106110bd576101008083540402835291602001916110e8565b820191906000526020600020905b8154815290600101906020018083116110cb57829003601f168201915b5050505050908060020154908060030180546111039061278b565b80601f016020809104026020016040519081016040528092919081815260200182805461112f9061278b565b801561117c5780601f106111515761010080835404028352916020019161117c565b820191906000526020600020905b81548152906001019060200180831161115f57829003601f168201915b5050505050908060040160009054906101000a900460ff16908060040160019054906101000a900473ffffffffffffffffffffffffffffffffffffffff16905086565b60016020528060005260406000206000915054906101000a900460ff1681565b60026003811115611219577f4e487b7100000000000000000000000000000000000000000000000000000000600052602160045260246000fd5b600160003373ffffffffffffffffffffffffffffffffffffffff1673ffffffffffffffffffffffffffffffffffffffff16815260200190815260200160002060009054906101000a900460ff16600381111561129e577f4e487b7100000000000000000000000000000000000000000000000000000000600052602160045260246000fd5b146112de576040517f08c379a00000000000000000000000000000000000000000000000000000000081526004016112d5906121e8565b60405180910390fd5b816000811180156112f157506002548111155b611330576040517f08c379a000000000000000000000000000000000000000000000000000000000815260040161132790612108565b60405180910390fd5b823373ffffffffffffffffffffffffffffffffffffffff1660008083815260200190815260200160002060040160019054906101000a900473ffffffffffffffffffffffffffffffffffffffff1673ffffffffffffffffffffffffffffffffffffffff16146113d4576040517f08c379a00000000000000000000000000000000000000000000000000000000081526004016113cb90612128565b60405180910390fd5b60008085815260200190815260200160002060050183908060018154018082558091505060019003906000526020600020016000909190919091509080519060200190611422929190611728565b507fdc280875b120650ffe3edf5f724f07fd086361a32c2a387fe34b495f5679e77d848460405161145492919061225a565b60405180910390a150505050565b60025481565b600360009054906101000a900473ffffffffffffffffffffffffffffffffffffffff1681565b60606000602867ffffffffffffffff8111156114d3577f4e487b7100000000000000000000000000000000000000000000000000000000600052604160045260246000fd5b6040519080825280601f01601f1916602001820160405280156115055781602001600182028036833780820191505090505b50905060005b60148110156116b95760008160136115239190612667565b600861152f91906125d2565b600261153b91906124b4565b8573ffffffffffffffffffffffffffffffffffffffff1661155c91906123ff565b60f81b9050600060108260f81c6115739190612430565b60f81b905060008160f81c601061158a919061262c565b8360f81c611598919061269b565b60f81b90506115a6826116e2565b858560026115b491906125d2565b815181106115eb577f4e487b7100000000000000000000000000000000000000000000000000000000600052603260045260246000fd5b60200101907effffffffffffffffffffffffffffffffffffffffffffffffffffffffffffff1916908160001a905350611623816116e2565b85600186600261163391906125d2565b61163d9190612372565b81518110611674577f4e487b7100000000000000000000000000000000000000000000000000000000600052603260045260246000fd5b60200101907effffffffffffffffffffffffffffffffffffffffffffffffffffffffffffff1916908160001a90535050505080806116b1906127bd565b91505061150b565b50806040516020016116cb9190611f64565b604051602081830303815290604052915050919050565b6000600a8260f81c60ff16101561170d5760308260f81c61170391906123c8565b60f81b9050611723565b60578260f81c61171d91906123c8565b60f81b90505b919050565b8280546117349061278b565b90600052602060002090601f016020900481019282611756576000855561179d565b82601f1061176f57805160ff191683800117855561179d565b8280016001018555821561179d579182015b8281111561179c578251825591602001919060010190611781565b5b5090506117aa919061180e565b5090565b8280548282559060005260206000209081019282156117fd579160200282015b828111156117fc5782518290805190602001906117ec929190611728565b50916020019190600101906117ce565b5b50905061180a919061182b565b5090565b5b8082111561182757600081600090555060010161180f565b5090565b5b8082111561184b5760008181611842919061184f565b5060010161182c565b5090565b50805461185b9061278b565b6000825580601f1061186d575061188c565b601f01602090049060005260206000209081019061188b919061180e565b5b50565b60006118a261189d846122bb565b61228a565b9050828152602081018484840111156118ba57600080fd5b6118c5848285612749565b509392505050565b6000813590506118dc81612923565b92915050565b6000813590506118f18161293a565b92915050565b600082601f83011261190857600080fd5b813561191884826020860161188f565b91505092915050565b6000813590506119308161294a565b92915050565b60006020828403121561194857600080fd5b6000611956848285016118cd565b91505092915050565b6000806040838503121561197257600080fd5b6000611980858286016118cd565b9250506020611991858286016118e2565b9150509250929050565b600080600080608085870312156119b157600080fd5b600085013567ffffffffffffffff8111156119cb57600080fd5b6119d7878288016118f7565b945050602085013567ffffffffffffffff8111156119f457600080fd5b611a00878288016118f7565b9350506040611a1187828801611921565b925050606085013567ffffffffffffffff811115611a2e57600080fd5b611a3a878288016118f7565b91505092959194509250565b600060208284031215611a5857600080fd5b6000611a6684828501611921565b91505092915050565b60008060408385031215611a8257600080fd5b6000611a9085828601611921565b9250506020611aa1858286016118cd565b9150509250929050565b60008060408385031215611abe57600080fd5b6000611acc85828601611921565b925050602083013567ffffffffffffffff811115611ae957600080fd5b611af5858286016118f7565b9150509250929050565b6000611b0b8383611be6565b905092915050565b611b1c816126cf565b82525050565b6000611b2d826122fb565b611b378185612329565b935083602082028501611b49856122eb565b8060005b85811015611b855784840389528151611b668582611aff565b9450611b718361231c565b925060208a01995050600181019050611b4d565b50829750879550505050505092915050565b611ba0816126e1565b82525050565b6000611bb182612306565b611bbb818561233a565b9350611bcb818560208601612758565b80840191505092915050565b611be081612737565b82525050565b6000611bf182612311565b611bfb8185612345565b9350611c0b818560208601612758565b611c14816128f1565b840191505092915050565b6000611c2a82612311565b611c348185612356565b9350611c44818560208601612758565b611c4d816128f1565b840191505092915050565b6000611c6382612311565b611c6d8185612367565b9350611c7d818560208601612758565b80840191505092915050565b6000611c96601683612356565b91507f50726f6475637420646f6573206e6f74206578697374000000000000000000006000830152602082019050919050565b6000611cd6602583612356565b91507f596f7520617265206e6f7420746865206f776e6572206f66207468697320707260008301527f6f647563740000000000000000000000000000000000000000000000000000006020830152604082019050919050565b6000611d3c600283612367565b91507f30780000000000000000000000000000000000000000000000000000000000006000830152600282019050919050565b6000611d7c601883612356565b91507f4f6e6c792061646d696e2063616e2063616c6c207468697300000000000000006000830152602082019050919050565b6000611dbc600c83612356565b91507f496e76616c696420726f6c6500000000000000000000000000000000000000006000830152602082019050919050565b6000611dfc601f83612356565b91507f4f6e6c79206d616e7566616374757265722063616e2063616c6c2074686973006000830152602082019050919050565b6000611e3c601183612356565b91507f496e76616c6964206e6577206f776e65720000000000000000000000000000006000830152602082019050919050565b6000611e7c602d83612356565b91507f4f6e6c79206d616e756661637475726572206f72206469737472696275746f7260008301527f2063616e207472616e73666572000000000000000000000000000000000000006020830152604082019050919050565b6000611ee2600f83612367565b91507f5472616e7366657272656420746f2000000000000000000000000000000000006000830152600f82019050919050565b6000611f22601e83612356565b91507f4f6e6c79206469737472696275746f722063616e2063616c6c207468697300006000830152602082019050919050565b611f5e81612720565b82525050565b6000611f6f82611d2f565b9150611f7b8284611ba6565b915081905092915050565b6000611f9182611ed5565b9150611f9d8284611c58565b915081905092915050565b6000602082019050611fbd6000830184611b13565b92915050565b6000604082019050611fd86000830185611b13565b611fe56020830184611bd7565b9392505050565b60006020820190506120016000830184611bd7565b92915050565b600060c08201905081810360008301526120218189611c1f565b905081810360208301526120358188611c1f565b90506120446040830187611f55565b81810360608301526120568186611c1f565b90506120656080830185611b97565b61207260a0830184611b13565b979650505050505050565b600060e0820190508181036000830152612097818a611c1f565b905081810360208301526120ab8189611c1f565b90506120ba6040830188611f55565b81810360608301526120cc8187611c1f565b90506120db6080830186611b97565b81810360a08301526120ed8185611b22565b90506120fc60c0830184611b13565b98975050505050505050565b6000602082019050818103600083015261212181611c89565b9050919050565b6000602082019050818103600083015261214181611cc9565b9050919050565b6000602082019050818103600083015261216181611d6f565b9050919050565b6000602082019050818103600083015261218181611daf565b9050919050565b600060208201905081810360008301526121a181611def565b9050919050565b600060208201905081810360008301526121c181611e2f565b9050919050565b600060208201905081810360008301526121e181611e6f565b9050919050565b6000602082019050818103600083015261220181611f15565b9050919050565b600060208201905061221d6000830184611f55565b92915050565b60006060820190506122386000830186611f55565b6122456020830185611b13565b6122526040830184611b13565b949350505050565b600060408201905061226f6000830185611f55565b81810360208301526122818184611c1f565b90509392505050565b6000604051905081810181811067ffffffffffffffff821117156122b1576122b06128c2565b5b8060405250919050565b600067ffffffffffffffff8211156122d6576122d56128c2565b5b601f19601f8301169050602081019050919050565b6000819050602082019050919050565b600081519050919050565b600081519050919050565b600081519050919050565b6000602082019050919050565b600082825260208201905092915050565b600081905092915050565b600082825260208201905092915050565b600082825260208201905092915050565b600081905092915050565b600061237d82612720565b915061238883612720565b9250827fffffffffffffffffffffffffffffffffffffffffffffffffffffffffffffffff038211156123bd576123bc612806565b5b828201905092915050565b60006123d38261272a565b91506123de8361272a565b92508260ff038211156123f4576123f3612806565b5b828201905092915050565b600061240a82612720565b915061241583612720565b92508261242557612424612835565b5b828204905092915050565b600061243b8261272a565b91506124468361272a565b92508261245657612455612835565b5b828204905092915050565b6000808291508390505b60018511156124ab5780860481111561248757612486612806565b5b60018516156124965780820291505b80810290506124a485612902565b945061246b565b94509492505050565b60006124bf82612720565b91506124ca83612720565b92506124f77fffffffffffffffffffffffffffffffffffffffffffffffffffffffffffffffff84846124ff565b905092915050565b60008261250f57600190506125cb565b8161251d57600090506125cb565b8160018114612533576002811461253d5761256c565b60019150506125cb565b60ff84111561254f5761254e612806565b5b8360020a91508482111561256657612565612806565b5b506125cb565b5060208310610133831016604e8410600b84101617156125a15782820a90508381111561259c5761259b612806565b5b6125cb565b6125ae8484846001612461565b925090508184048111156125c5576125c4612806565b5b81810290505b9392505050565b60006125dd82612720565b91506125e883612720565b9250817fffffffffffffffffffffffffffffffffffffffffffffffffffffffffffffffff048311821515161561262157612620612806565b5b828202905092915050565b60006126378261272a565b91506126428361272a565b92508160ff048311821515161561265c5761265b612806565b5b828202905092915050565b600061267282612720565b915061267d83612720565b9250828210156126905761268f612806565b5b828203905092915050565b60006126a68261272a565b91506126b18361272a565b9250828210156126c4576126c3612806565b5b828203905092915050565b60006126da82612700565b9050919050565b60008115159050919050565b60008190506126fb8261290f565b919050565b600073ffffffffffffffffffffffffffffffffffffffff82169050919050565b6000819050919050565b600060ff82169050919050565b6000612742826126ed565b9050919050565b82818337600083830152505050565b60005b8381101561277657808201518184015260208101905061275b565b83811115612785576000848401525b50505050565b600060028204905060018216806127a357607f821691505b602082108114156127b7576127b6612893565b5b50919050565b60006127c882612720565b91507fffffffffffffffffffffffffffffffffffffffffffffffffffffffffffffffff8214156127fb576127fa612806565b5b600182019050919050565b7f4e487b7100000000000000000000000000000000000000000000000000000000600052601160045260246000fd5b7f4e487b7100000000000000000000000000000000000000000000000000000000600052601260045260246000fd5b7f4e487b7100000000000000000000000000000000000000000000000000000000600052602160045260246000fd5b7f4e487b7100000000000000000000000000000000000000000000000000000000600052602260045260246000fd5b7f4e487b7100000000000000000000000000000000000000000000000000000000600052604160045260246000fd5b6000601f19601f8301169050919050565b60008160011c9050919050565b600481106129205761291f612864565b5b50565b61292c816126cf565b811461293757600080fd5b50565b6004811061294757600080fd5b50565b61295381612720565b811461295e57600080fd5b5056fea26469706673582212203c42989d1d81203ba4e76c688eefcfe528ce1e94e9cc54f88277d8eef9ea1a8764736f6c63430008000033",
  "immutableReferences": {},
  "source": "// SPDX-License-Identifier: MIT\r\npragma solidity ^0.8.0;\r\n\r\ncontract CosmeticsTraceability {\r\n    // Roles enum\r\n    enum Role { None, Manufacturer, Distributor, Consumer }\r\n\r\n    struct Product {\r\n        string name;\r\n        string batchID;\r\n        uint manufactureDate;\r\n        string origin;\r\n        bool isAuthentic;\r\n        address owner; // Owner hin ti\r\n        string[] history; // Lch s trng thi\r\n    }\r\n\r\n    mapping(uint => Product) public products;\r\n    mapping(address => Role) public roles; // Vai tr ca address\r\n    uint public productCount = 0;\r\n\r\n    address public admin; // Deployer l admin\r\n\r\n    event ProductCreated(uint id, string name);\r\n    event StatusUpdated(uint id, string newStatus);\r\n    event OwnershipTransferred(uint id, address previousOwner, address newOwner); // Thm previousOwner\r\n    event RoleAssigned(address user, Role role);\r\n\r\n    modifier onlyManufacturer() {\r\n        require(roles[msg.sender] == Role.Manufacturer, \"Only manufacturer can call this\");\r\n        _;\r\n    }\r\n\r\n    modifier onlyDistributor() {\r\n        require(roles[msg.sender] == Role.Distributor, \"Only distributor can call this\");\r\n        _;\r\n    }\r\n\r\n    modifier onlyAdmin() {\r\n        require(msg.sender == admin, \"Only admin can call this\");\r\n        _;\r\n    }\r\n\r\n    modifier productExists(uint _id) {\r\n        require(_id > 0 && _id <= productCount, \"Product does not exist\");\r\n        _;\r\n    }\r\n\r\n    modifier onlyOwnerOfProduct(uint _id) {\r\n        require(products[_id].owner == msg.sender, \"You are not the owner of this product\");\r\n        _;\r\n    }\r\n\r\n    constructor() {\r\n        admin = msg.sender; // Deployer l admin\r\n        roles[msg.sender] = Role.Manufacturer; // Gn role Manufacturer cho admin ban u\r\n    }\r\n\r\n    // Admin gn role cho user\r\n    function addRole(address _user, Role _role) public onlyAdmin {\r\n        require(_role != Role.None, \"Invalid role\");\r\n        roles[_user] = _role;\r\n        emit RoleAssigned(_user, _role);\r\n    }\r\n\r\n    // To sn phm (ch Manufacturer)\r\n    function createProduct(string memory _name, string memory _batchID, uint _manufactureDate, string memory _origin) public onlyManufacturer {\r\n        productCount++;\r\n        products[productCount] = Product(_name, _batchID, _manufactureDate, _origin, true, msg.sender, new string[](0));\r\n        products[productCount].history.push(\"Created by Manufacturer\");\r\n        emit ProductCreated(productCount, _name);\r\n    }\r\n\r\n    // Cp nht trng thi (ch Distributor, v ch owner hin ti)\r\n    function updateStatus(uint _id, string memory _newStatus) public onlyDistributor productExists(_id) onlyOwnerOfProduct(_id) {\r\n        products[_id].history.push(_newStatus);\r\n        emit StatusUpdated(_id, _newStatus);\r\n    }\r\n\r\n    // Chuyn quyn s hu (ch Distributor hoc Manufacturer, v ch owner hin ti)\r\n    function transferOwnership(uint _id, address _newOwner) public productExists(_id) onlyOwnerOfProduct(_id) {\r\n        require(_newOwner != address(0), \"Invalid new owner\");\r\n        require(roles[msg.sender] == Role.Manufacturer || roles[msg.sender] == Role.Distributor, \"Only manufacturer or distributor can transfer\");\r\n        address previousOwner = products[_id].owner;\r\n        products[_id].owner = _newOwner;\r\n        products[_id].history.push(string(abi.encodePacked(\"Transferred to \", toAsciiString(_newOwner))));\r\n        emit OwnershipTransferred(_id, previousOwner, _newOwner);\r\n    }\r\n\r\n    // Hm view sn phm (ai cng gi c)\r\n    function verifyProduct(uint _id) public view productExists(_id) returns (string memory name, string memory batchID, uint manufactureDate, string memory origin, bool isAuthentic, string[] memory history, address owner) {\r\n        Product memory p = products[_id];\r\n        return (p.name, p.batchID, p.manufactureDate, p.origin, p.isAuthentic, p.history, p.owner);\r\n    }\r\n\r\n    // Helper function to convert address to string\r\n    function toAsciiString(address x) internal pure returns (string memory) {\r\n        bytes memory s = new bytes(40);\r\n        for (uint i = 0; i < 20; i++) {\r\n            bytes1 b = bytes1(uint8(uint(uint160(x)) / (2**(8*(19 - i)))));\r\n            bytes1 hi = bytes1(uint8(b) / 16);\r\n            bytes1 lo = bytes1(uint8(b) - 16 * uint8(hi));\r\n            s[2*i] = char(hi);\r\n            s[2*i+1] = char(lo);            \r\n        }\r\n        return string(abi.encodePacked(\"0x\", s));\r\n    }\r\n\r\n    function char(bytes1 b) internal pure returns (bytes1 c) {\r\n        if (uint8(b) < 10) return bytes1(uint8(b) + 0x30);\r\n        else return bytes1(uint8(b) + 0x57);\r\n    }\r\n}",
  "sourcePath": "D:\\blockchain-cosmetics\\contracts\\CosmeticsTraceability.sol",
  "compiler": {
    "name": "solc",
    "version": "0.8.0+commit.c7dfd78e.Emscripten.clang"
  },
  "schemaVersion": "3.4.16",
  "updatedAt": "2026-02-17T04:47:03.518Z",
  "devdoc": {
    "kind": "dev",
    "methods": {},
    "version": 1
  },
  "userdoc": {
    "kind": "user",
    "methods": {},
    "version": 1
  }
}